:100000000C942A000C943F000C943F000C943F0089
:100010000C943F000C943F000C943F000C943F0064
:100020000C943F000C943F000C943F000C943F0054
:100030000C943F000C943F000C943F000C943F0044
:100040000C943F000C943F000C943F000C943F0034
:100050000C943F0011241FBECFE5D8E0DEBFCDBF1A
:1000600010E0A0E6B0E0E4E4FEE202C005900D92EC
:10007000AC36B107D9F70E942C140C9420170C94BD
:100080000000EF92FF920F931F937B018C0120E001
:1000900030E040E05FE40E94ED0388238CF0C8016B
:1000A000B70120E030E040E05FE40E94B9010E9427
:1000B0004D049B01AC01205030404040504806C0E8
:1000C000C801B7010E944D049B01AC01B901CA01EE
:1000D0001F910F91FF90EF900895A0E0B0E0E3E74B
:1000E000F0E00C944814DC012B01FA019C91923051
:1000F00008F439C1EB018881823008F433C19430AF
:1001000069F4843009F02FC111969C91119789816F
:10011000981709F428C1A3E6B0E025C1843009F49A
:1001200021C18230A9F4923009F01DC19A01AD01BC
:1001300088E0EA010990AE01E90109929E0181502F
:10014000C1F7E201898111969C918923818308C1BD
:10015000923009F407C112962D903C901397EB0151
:100160008A819B811496AD90BD90CD90DC901797BD
:10017000EC80FD800E811F819101281B390BB90194
:1001800037FF04C066277727621B730B6032710547
:100190000CF061C0121613066CF537014801062EEB
:1001A00004C096948794779467940A94D2F721E0D8
:1001B00030E040E050E004C0220F331F441F551FC1
:1001C0006A95D2F721503040404050402E213F21C7
:1001D00040235123211531054105510521F021E02E
:1001E00030E040E050E079018A01E628F72808294C
:1001F00019293CC0232BD1F1260E371E35014601AB
:10020000062E04C096948794779467940A94D2F744
:1002100021E030E040E050E004C0220F331F441FD3
:10022000551F6A95D2F721503040404050402A2156
:100230003B214C215D21211531054105510521F05E
:1002400021E030E040E050E059016A01A628B728DB
:10025000C828D9280BC0821593052CF01C01AA24AC
:10026000BB24650103C0EE24FF24870111969C91F5
:10027000D20111968C91981709F445C0992339F051
:10028000A80197012A193B094C095D0906C0A6017E
:1002900095012E193F09400B510B57FD08C01182E3
:1002A0003382228224833583468357831DC081E0B5
:1002B00081833382228288279927DC01821B930B5A
:1002C000A40BB50B84839583A683B7830DC0220F3F
:1002D000331F441F551F24833583468357838281F0
:1002E000938101979383828324813581468157814D
:1002F000DA01C9010197A109B1098F5F9F4FAF4F83
:10030000BF4328F30BC0918333822282EA0CFB1C8B
:100310000C1D1D1DE482F5820683178383E0808314
:10032000248135814681578157FF1AC0C901AA2708
:1003300097FDA095BA2F81709070A070B0705695FF
:10034000479537952795822B932BA42BB52B848328
:100350009583A683B7838281938101969383828359
:10036000DF0101C0D201CD01CDB7DEB7E2E10C94CF
:100370006414A0E2B0E0EFEBF1E00C945414698354
:100380007A838B839C832D833E834F835887E9E058
:10039000EE2EF12CEC0EFD1ECE010196B7010E944F
:1003A00076058E010F5E1F4FCE010596B8010E94A3
:1003B00076058A8991E089278A8BC701B801AE0149
:1003C000475E5F4F0E946D000E94A104A096E6E088
:1003D0000C947014A0E2B0E0E0EFF1E00C9454143F
:1003E00069837A838B839C832D833E834F835887D5
:1003F000F9E0EF2EF12CEC0EFD1ECE010196B701B7
:100400000E9476058E010F5E1F4FCE010596B80142
:100410000E947605C701B801AE01475E5F4F0E949A
:100420006D000E94A104A096E6E00C947014A0E276
:10043000B0E0EDE1F2E00C94481469837A838B8399
:100440009C832D833E834F835887CE010196BE0146
:10045000675F7F4F0E947605CE010596BE016F5EF5
:100460007F4F0E9476059985923088F08989823085
:10047000C8F0943019F4823051F404C0843029F467
:10048000923081F483E690E0C6C0923049F420E0D7
:100490009A858A89981321E02A87CE010996BBC0E4
:1004A000823049F420E09A858A89981321E02A8BCA
:1004B000CE014196B0C02D843E844F8458886D880B
:1004C0007E888F88988CEE24FF248701AA24BB2481
:1004D000650140E050E060E070E0E0E0F0E0C10184
:1004E00081709070892BE9F0E60CF71C081D191D2E
:1004F0009A01AB012A0D3B1D4C1D5D1D80E090E073
:10050000A0E0B0E0E614F7040805190520F481E046
:1005100090E0A0E0B0E0BA01A901480F591F6A1F9E
:100520007B1FAA0CBB1CCC1CDD1C97FE08C081E005
:1005300090E0A0E0B0E0A82AB92ACA2ADB2A3196C6
:10054000E032F10549F0660C771C881C991C569422
:10055000479437942794C3CFFA85EA892B893C893D
:100560008B859C85280F391F2E5F3F4F17C0CA010E
:1005700081709070892B61F016950795F794E79438
:1005800080E090E0A0E0B0E8E82AF92A0A2B1B2BD3
:1005900076956795579547952F5F3F4F77FDE7CF46
:1005A0000CC0440F551F661F771F17FD4160EE0CEE
:1005B000FF1C001F111F21503040403090E05907B0
:1005C00090E0690790E4790760F32B8F3C8FDB01A3
:1005D000CA018F779070A070B07080349105A1052A
:1005E000B10561F447FD0AC0E114F10401051105EC
:1005F00029F0405C5F4F6F4F7F4F40781A8EFE1797
:1006000011F081E08A8F4D8F5E8F6F8F78A383E02A
:10061000898FCE0149960E94A104A096E2E10C9434
:100620006414A8E1B0E0E7E1F3E00C9450146983AE
:100630007A838B839C832D833E834F835887B9E0D5
:10064000EB2EF12CEC0EFD1ECE010196B7010E949F
:1006500076058E010F5E1F4FCE010596B8010E94F0
:1006600076052985223008F47EC03989323010F4AD
:10067000B8017CC08A859A8989278A87243011F03D
:10068000223031F4231709F06EC063E670E06EC0CB
:10069000343039F41D861E861F86188A1C861B86F8
:1006A00004C0323021F484E08987B7015FC02B8514
:1006B0003C858B899C89281B390B3C872B87ED84D3
:1006C000FE840F851889AD88BE88CF88D88CEA143F
:1006D000FB040C051D0540F4EE0CFF1C001F111F50
:1006E000215030403C872B8720E030E040E050E054
:1006F00080E090E0A0E0B0E460E070E0EA14FB0489
:100700000C051D0540F0282B392B4A2B5B2BEA18D2
:10071000FB080C091D09B695A79597958795EE0CD2
:10072000FF1C001F111F6F5F7F4F6F31710531F785
:10073000DA01C9018F779070A070B0708034910594
:10074000A105B10561F427FD0AC0E114F10401051A
:10075000110529F0205C3F4F4F4F5F4F20782D87C8
:100760003E874F87588BBE01675F7F4FCB010E944A
:10077000A1046896EAE00C946C14A8E1B0E0E3EC04
:10078000F3E00C94541469837A838B839C832D83C8
:100790003E834F83588789E0E82EF12CEC0EFD1E36
:1007A000CE010196B7010E9476058E010F5E1F4FA4
:1007B000CE010596B8010E9476058985823040F009
:1007C0008989823028F0C701B8010E94EE0501C076
:1007D0008FEF6896E6E00C947014A8E1B0E0E3EFC8
:1007E000F3E00C94541469837A838B839C832D8368
:1007F0003E834F83588789E0E82EF12CEC0EFD1ED6
:10080000CE010196B7010E9476058E010F5E1F4F43
:10081000CE010596B8010E9476058985823040F0A8
:100820008989823028F0C701B8010E94EE0501C015
:100830008FEF6896E6E00C947014A8E1B0E0E3E274
:10084000F4E00C94541469837A838B839C832D8306
:100850003E834F83588789E0E82EF12CEC0EFD1E75
:10086000CE010196B7010E9476058E010F5E1F4FE3
:10087000CE010596B8010E9476058985823040F048
:100880008989823028F0C701B8010E94EE0501C0B5
:1008900081E06896E6E00C947014ACE0B0E0E3E52B
:1008A000F4E00C94581469837A838B839C83CE0183
:1008B0000196BE016B5F7F4F0E9476058D8182306D
:1008C00061F1823050F1843021F48E81882351F11E
:1008D0002EC02F81388537FD20C06E812F31310524
:1008E0001CF06623F9F023C08EE190E0821B930B8D
:1008F00029853A854B855C8504C056954795379583
:1009000027958A95D2F76623B1F05095409530959A
:1009100021953F4F4F4F5F4F0EC020E030E040E049
:1009200050E009C02FEF3FEF4FEF5FE704C020E03A
:1009300030E040E050E8B901CA012C96E2E00C94A6
:100940007414DF92EF92FF920F931F93FC01E480E7
:10095000F58006811781D1808081823048F480E063
:1009600090E0A0E1B0E0E82AF92A0A2B1B2BA5C0F1
:10097000843009F49FC0823021F4EE24FF248701E3
:1009800005C0E114F1040105110519F4E0E0F0E0FF
:1009900096C0628173819FEF623879070CF05BC06B
:1009A00022E83FEF261B370B2A3131052CF020E0DF
:1009B00030E040E050E02AC0B801A701022E04C098
:1009C00076956795579547950A94D2F781E090E020
:1009D000A0E0B0E004C0880F991FAA1FBB1F2A9592
:1009E000D2F70197A109B1098E219F21A023B1233C
:1009F0000097A105B10521F081E090E0A0E0B0E012
:100A00009A01AB01282B392B4A2B5B2BDA01C90148
:100A10008F779070A070B07080349105A105B105FA
:100A200039F427FF09C0205C3F4F4F4F5F4F04C090
:100A3000215C3F4F4F4F5F4FE0E0F0E02030A0E0FF
:100A40003A07A0E04A07A0E45A0710F0E1E0F0E01E
:100A500079018A0127C06038710564F5FB01E1580E
:100A6000FF4FD801C7018F779070A070B0708034AD
:100A70009105A105B10539F4E7FE0DC080E490E0D1
:100A8000A0E0B0E004C08FE390E0A0E0B0E0E80EAA
:100A9000F91E0A1F1B1F17FF05C016950795F7942F
:100AA000E794319687E016950795F794E7948A9531
:100AB000D1F705C0EE24FF248701EFEFF0E06E2FA1
:100AC000679566276795902F9F77D794DD24D794F5
:100AD0008E2F8695492F462B582F5D29B701CA01C5
:100AE0001F910F91FF90EF90DF900895FC01DB01C3
:100AF000408151812281622F6F7770E0221F22276F
:100B0000221F9381892F880F822B282F30E0991F75
:100B10009927991F11969C93119721153105A9F5D5
:100B2000411551056105710511F482E037C082E875
:100B30009FEF13969C938E9312979A01AB0167E0F7
:100B4000220F331F441F551F6A95D1F783E08C9302
:100B50000DC0220F331F441F551F12968D919C917B
:100B60001397019713969C938E931297203080E0F1
:100B7000380780E0480780E4580758F314962D930F
:100B80003D934D935C93179708952F3F310579F46A
:100B9000411551056105710519F484E08C930895A0
:100BA00064FF03C081E08C9312C01C9210C02F57C9
:100BB000304013963C932E93129783E08C9387E0FA
:100BC000440F551F661F771F8A95D1F770641496DE
:100BD0004D935D936D937C93179708951F93DC015C
:100BE000FB019C91923008F447C08081823008F468
:100BF00043C0943051F411961C91843099F5818151
:100C0000682F70E0611B71093FC0843021F0923081
:100C100031F48230B9F18181882389F12DC0119698
:100C20001C9111978230F1F081811817D9F4129636
:100C30002D913C911397828193818217930794F0B1
:100C400028173907BCF014968D919D910D90BC9199
:100C5000A02D2481358146815781281739074A07FD
:100C60005B0718F4112341F00AC082179307A40709
:100C7000B50740F4112319F061E070E005C06FEF93
:100C80007FEF02C060E070E0CB011F910895DF9319
:100C9000CF93CDB7DEB727970FB6F894DEBF0FBE60
:100CA000CDBF89836A834B838981843008F0EEC08D
:100CB0008A81883008F0EAC08B81813009F06FC0EA
:100CC0008981282F30E03F832E838E819F81813060
:100CD000910549F12E813F81223031052CF48E811E
:100CE0009F81009761F0D2C02E813F812230310573
:100CF00071F18E819F8183309105E9F1C7C0AAE32C
:100D0000B0E0EAE3F0E08081482F8A81282F30E0CC
:100D100081E090E0022E02C0880F991F0A94E2F74A
:100D2000842B8C93B3C0A7E3B0E0E7E3F0E08081CD
:100D3000482F8A81282F30E081E090E0022E02C007
:100D4000880F991F0A94E2F7842B8C939FC0A4E329
:100D5000B0E0E4E3F0E08081482F8A81282F30E082
:100D600081E090E0022E02C0880F991F0A94E2F7FA
:100D7000842B8C938BC0A1E3B0E0E1E3F0E08081B1
:100D8000482F8A81282F30E081E090E0022E02C0B7
:100D9000880F991F0A94E2F7842B8C9377C08B817C
:100DA000882309F073C08981282F30E03D832C838C
:100DB0008C819D818130910559F12C813D812230BA
:100DC00031052CF48C819D81009769F05FC02C81E6
:100DD0003D812230310589F18C819D8183309105DF
:100DE00009F440C053C0AAE3B0E0EAE3F0E0808138
:100DF000482F8A81282F30E081E090E0022E02C047
:100E0000880F991F0A94E2F7809584238C933EC043
:100E1000A7E3B0E0E7E3F0E08081482F8A81282F44
:100E200030E081E090E0022E02C0880F991F0A9402
:100E3000E2F7809584238C9329C0A4E3B0E0E4E337
:100E4000F0E08081482F8A81282F30E081E090E017
:100E5000022E02C0880F991F0A94E2F7809584231E
:100E60008C9314C0A1E3B0E0E1E3F0E08081482F6F
:100E70008A81282F30E081E090E0022E02C0880FA6
:100E8000991F0A94E2F7809584238C9327960FB6D6
:100E9000F894DEBF0FBECDBFCF91DF910895DF93F1
:100EA000CF93CDB7DEB727970FB6F894DEBF0FBE4E
:100EB000CDBF89836A834B838981843008F0EEC07B
:100EC0008A81883008F0EAC08B81882309F074C0D9
:100ED0008981282F30E03F832E838E819F8181304E
:100EE000910559F12E813F81223031052CF48E81FC
:100EF0009F81009769F0D2C02E813F812230310559
:100F000089F18E819F818330910509F440C0C6C06C
:100F1000ABE3B0E0EBE3F0E08081482F8A81282F3B
:100F200030E081E090E0022E02C0880F991F0A9401
:100F3000E2F7809584238C93B1C0A8E3B0E0E8E3A6
:100F4000F0E08081482F8A81282F30E081E090E016
:100F5000022E02C0880F991F0A94E2F7809584231D
:100F60008C939CC0A5E3B0E0E5E3F0E08081482FDE
:100F70008A81282F30E081E090E0022E02C0880FA5
:100F8000991F0A94E2F7809584238C9387C0A2E38B
:100F9000B0E0E2E3F0E08081482F8A81282F30E042
:100FA00081E090E0022E02C0880F991F0A94E2F7B8
:100FB000809584238C9372C08B81813009F06EC040
:100FC0008981282F30E03D832C838C819D81813065
:100FD000910549F12C813D81223031052CF48C8121
:100FE0009D81009761F05AC02C813D8122303105EE
:100FF00071F18C819D8183309105E9F14FC0ABE3A4
:10100000B0E0EBE3F0E08081482F8A81282F30E0C8
:1010100081E090E0022E02C0880F991F0A94E2F747
:10102000842B8C933BC0A8E3B0E0E8E3F0E0808140
:10103000482F8A81282F30E081E090E0022E02C004
:10104000880F991F0A94E2F7842B8C9327C0A5E39D
:10105000B0E0E5E3F0E08081482F8A81282F30E07E
:1010600081E090E0022E02C0880F991F0A94E2F7F7
:10107000842B8C9313C0A2E3B0E0E2E3F0E0808124
:10108000482F8A81282F30E081E090E0022E02C0B4
:10109000880F991F0A94E2F7842B8C9327960FB63A
:1010A000F894DEBF0FBECDBFCF91DF910895DF93DF
:1010B000CF9300D000D00F92CDB7DEB78A836B8379
:1010C00019828A81843008F06CC08B81883008F0E6
:1010D00068C08A81282F30E03D832C834C815D815C
:1010E0004130510541F18C819D818230910534F46C
:1010F0002C813D812115310561F055C04C815D8108
:101100004230510551F18C819D8183309105B9F1B7
:101110004AC0E9E3F0E08081282F30E08B81882FFE
:1011200090E0A90102C0559547958A95E2F7CA015A
:101130008170898338C0E6E3F0E08081282F30E0B9
:101140008B81882F90E0A90102C0559547958A951B
:10115000E2F7CA018170898326C0E3E3F0E0808171
:10116000282F30E08B81882F90E0A90102C055958F
:1011700047958A95E2F7CA018170898314C0E0E33C
:10118000F0E08081282F30E08B81882F90E0A9014A
:1011900002C0559547958A95E2F7CA018170898307
:1011A00002C08FEF898389810F900F900F900F906D
:1011B0000F90CF91DF9108950F931F93DF93CF93FB
:1011C000CDB7DEB7C455D0400FB6F894DEBF0FBE22
:1011D000CDBF81E061E041E00E94470681E062E02E
:1011E00041E00E94470681E063E041E00E9447063B
:1011F000EBE3F0E0808164E041E00E944706EBE32E
:10120000F0E0808165E041E00E944706EBE3F0E01A
:10121000808166E041E00E944706EBE3F0E08081D8
:1012200067E041E00E944706FE01EF5AFF4F80E071
:1012300090E0A0EFB1E480839183A283B3838E0119
:10124000035B1F4FFE01EF5AFF4F60817181828166
:10125000938120E030E04AE755E40E941702DC0168
:10126000CB01F80180839183A283B383FE01E35B0A
:10127000FF4F608171818281938120E030E040E8FE
:101280005FE30E941D04882344F4FE01E55BFF4FE9
:1012900081E090E09183808364C0FE01E35BFF4FB7
:1012A000608171818281938120E03FEF4FE757E4B5
:1012B0000E94BD0318160CF043C0FE01EF5AFF4F09
:1012C000608171818281938120E030E040E251E4CD
:1012D0000E941702DC01CB018E01055B1F4FBC0190
:1012E000CD010E944100DC01CB01F8019183808394
:1012F0001FC0FE01E75BFF4F80E991E0918380838F
:10130000FE01E75BFF4F808191810197F1F7FE01BC
:10131000E75BFF4F91838083DE01A55BBF4FFE013A
:10132000E55BFF4F80819181019711969C938E938D
:10133000FE01E55BFF4F808191810097D1F627C0C8
:101340008E01055B1F4FFE01E35BFF4F60817181E2
:10135000828193810E944100DC01CB01F8019183DD
:101360008083DE01A95BBF4FFE01E55BFF4F8081FB
:1013700091818D939C93FE01E95BFF4F8081918168
:101380000197F1F7FE01E95BFF4F9183808382E0D3
:1013900090E00E94340CFE01ED5BFF4F80E090E096
:1013A000A0E8BFE380839183A283B3838E01015CB5
:1013B0001F4FFE01ED5BFF4F608171818281938140
:1013C00020E030E04AE755E40E941702DC01CB013F
:1013D000F80180839183A283B383FE01FF9660812D
:1013E00071818281938120E030E040E85FE30E94D8
:1013F0001D0488232CF481E090E09EAF8DAF46C0A1
:10140000FE01FF96608171818281938120E03FEF30
:101410004FE757E40E94BD03181664F5FE01ED5B2B
:10142000FF4F608171818281938120E030E040E252
:1014300051E40E941702DC01CB01BC01CD010E94E6
:101440004100DC01CB019EAF8DAF0FC080E991E080
:101450009CAF8BAF8BAD9CAD0197F1F79CAF8BAF81
:101460008DAD9EAD01979EAF8DAF8DAD9EAD0097BA
:1014700069F716C0FE01FF966081718182819381B8
:101480000E944100DC01CB019EAF8DAF8DAD9EADC2
:101490009AAF89AF89AD9AAD0197F1F79AAF89AF4D
:1014A00088E290E00E94340C80E090E0A0E8BFE386
:1014B0008DAB9EABAFABB8AF6DA97EA98FA998AD30
:1014C00020E030E04AE755E40E941702DC01CB013E
:1014D00089AB9AABABABBCAB69A97AA98BA99CA928
:1014E00020E030E040E85FE30E941D0488232CF4F4
:1014F00081E090E098AB8FA73FC069A97AA98BA93A
:101500009CA920E03FEF4FE757E40E94BD03181667
:101510004CF56DA97EA98FA998AD20E030E040E29E
:1015200051E40E941702DC01CB01BC01CD010E94F5
:101530004100DC01CB0198AB8FA70FC080E991E09F
:101540009EA78DA78DA59EA50197F1F79EA78DA7B4
:101550008FA598A9019798AB8FA78FA598A90097F9
:1015600069F714C069A97AA98BA99CA90E944100B6
:10157000DC01CB0198AB8FA78FA598A99CA78BA75F
:101580008BA59CA50197F1F79CA78BA78CE090E019
:101590000E94340C80E090E0A0E8BFE38FA398A7FE
:1015A000A9A7BAA76FA178A589A59AA520E030E0E0
:1015B0004AE755E40E941702DC01CB018BA39CA3F0
:1015C000ADA3BEA36BA17CA18DA19EA120E030E0C4
:1015D00040E85FE30E941D0488232CF481E090E042
:1015E0009AA389A33FC06BA17CA18DA19EA120E0FD
:1015F0003FEF4FE757E40E94BD0318164CF56FA16B
:1016000078A589A59AA520E030E040E251E40E9447
:101610001702DC01CB01BC01CD010E944100DC01BD
:10162000CB019AA389A30FC080E991E098A38F8F83
:101630008F8D98A10197F1F798A38F8F89A19AA117
:1016400001979AA389A389A19AA1009769F714C069
:101650006BA17CA18DA19EA10E944100DC01CB0168
:101660009AA389A389A19AA19E8F8D8F8D8D9E8D1E
:101670000197F1F79E8F8D8F86E090E00E94340CE9
:1016800080E090E0A0E8BFE3898F9A8FAB8FBC8F9A
:10169000698D7A8D8B8D9C8D20E030E04AE755E492
:1016A0000E941702DC01CB018D8B9E8BAF8BB88F14
:1016B0006D897E898F89988D20E030E040E85FE376
:1016C0000E941D0488232CF481E090E09C8B8B8B7E
:1016D0003FC06D897E898F89988D20E03FEF4FE76D
:1016E00057E40E94BD0318164CF5698D7A8D8B8DD9
:1016F0009C8D20E030E040E251E40E941702DC01C2
:10170000CB01BC01CD010E944100DC01CB019C8BCF
:101710008B8B0FC080E991E09A8B898B89899A899C
:101720000197F1F79A8B898B8B899C8901979C8B08
:101730008B8B8B899C89009769F714C06D897E8992
:101740008F89988D0E944100DC01CB019C8B8B8B93
:101750008B899C89988B8F878F8598890197F1F762
:10176000988B8F8781E090E00E94340C80E090E0BD
:10177000A0E0B0E48B879C87AD87BE876B857C85B6
:101780008D859E8520E030E04AE755E40E941702EF
:10179000DC01CB018F839887A987BA876F81788511
:1017A00089859A8520E030E040E85FE30E941D04CF
:1017B00088232CF481E090E09E838D833FC06F816D
:1017C000788589859A8520E03FEF4FE757E40E94AE
:1017D000BD0318164CF56B857C858D859E8520E0B4
:1017E00030E040E251E40E941702DC01CB01BC0171
:1017F000CD010E944100DC01CB019E838D830FC08F
:1018000080E991E09C838B838B819C810197F1F728
:101810009C838B838D819E8101979E838D838D8197
:101820009E81009769F714C06F81788589859A85B4
:101830000E944100DC01CB019E838D838D819E81BE
:101840009A83898389819A810197F1F79A838983A1
:10185000CC5ADF4F0FB6F894DEBF0FBECDBFCF918D
:10186000DF911F910F9108950F931F93DF93CF93F3
:10187000CDB7DEB7C755D0400FB6F894DEBF0FBE68
:10188000CDBFFE01E95AFF4F8083ABE3B0E0EBE34D
:10189000F0E08081982F9F70FE01E95AFF4F808110
:1018A000807F892B8C9381E061E040E00E944F07AC
:1018B00081E062E040E00E944F0781E063E041E0A8
:1018C0000E944F07FE01ED5AFF4F80E090E0A0E834
:1018D000BFE380839183A283B3838E01015B1F4F9B
:1018E000FE01ED5AFF4F60817181828193812BEA65
:1018F0003AEA4AEA50E40E941702DC01CB01F801FF
:1019000080839183A283B383FE01E15BFF4F6081FB
:1019100071818281938120E030E040E85FE30E94A2
:101920001D04882334F4FE01E25BFF4F81E08083D5
:10193000E0C0FE01E15BFF4F608171818281938194
:1019400020E030E04FE753E40E94BD0318160CF08E
:10195000C0C0FE01ED5AFF4F608171818281938189
:1019600020E030E04AE754E40E941103DC01CB019F
:10197000FE01E65BFF4F80839183A283B3838E01D8
:101980000A5B1F4FFE01E65BFF4F60817181828120
:10199000938120E030E04AE755E40E941702DC0121
:1019A000CB01F80180839183A283B383FE01EA5BBC
:1019B000FF4F608171818281938120E030E040E8B7
:1019C0005FE30E941D04882344F4FE01EC5BFF4F9B
:1019D00081E090E09183808364C0FE01EA5BFF4F69
:1019E000608171818281938120E03FEF4FE757E46E
:1019F0000E94BD0318160CF043C0FE01E65BFF4FCA
:101A0000608171818281938120E030E040E251E485
:101A10000E941702DC01CB018E010C5B1F4FBC0141
:101A2000CD010E944100DC01CB01F801918380834C
:101A30001FC0FE01EE5BFF4F80E991E09183808340
:101A4000FE01EE5BFF4F808191810197F1F7FE016E
:101A5000EE5BFF4F91838083DE01AC5BBF4FFE01E5
:101A6000EC5BFF4F80819181019711969C938E933F
:101A7000FE01EC5BFF4F808191810097D1F642C05F
:101A80008E010C5B1F4FFE01EA5BFF4F608171818D
:101A9000828193810E944100DC01CB01F801918396
:101AA0008083DE01A05CBF4FFE01EC5BFF4F8081B5
:101AB000918111969C938E93FE01E05CFF4F808193
:101AC00091810197F1F7FE01E05CFF4F91838083E4
:101AD00019C08E01025B1F4FFE01E15BFF4F608169
:101AE0007181828193810E944100DC01CB01F80168
:101AF0008083FE01E25BFF4F80818FAF8FAD8A95BF
:101B0000F1F78FAF81E063E040E00E944F0780E093
:101B100090E0A8E4B3E48BAF9CAFADAFBEAF6BADCC
:101B20007CAD8DAD9EAD2BEA3AEA4AEA50E40E94C4
:101B30001702DC01CB018FAB98AFA9AFBAAF6FA989
:101B400078AD89AD9AAD20E030E040E85FE30E94D7
:101B50001D0488231CF481E08EAB91C06FA978AD81
:101B600089AD9AAD20E030E04FE753E40E94BD0319
:101B700018160CF07BC06BAD7CAD8DAD9EAD20E03A
:101B800030E04AE754E40E941103DC01CB018AAB48
:101B90009BABACABBDAB6AA97BA98CA99DA920E08E
:101BA00030E04AE755E40E941702DC01CB018EA722
:101BB0009FA7A8ABB9AB6EA57FA588A999A920E07E
:101BC00030E040E85FE30E941D0488232CF481E0AC
:101BD00090E09DA78CA73FC06EA57FA588A999A975
:101BE00020E03FEF4FE757E40E94BD0318164CF585
:101BF0006AA97BA98CA99DA920E030E040E251E4CC
:101C00000E941702DC01CB01BC01CD010E94410002
:101C1000DC01CB019DA78CA70FC080E991E09BA7B9
:101C20008AA78AA59BA50197F1F79BA78AA78CA5F0
:101C30009DA501979DA78CA78CA59DA5009769F7E9
:101C400024C06EA57FA588A999A90E944100DC0146
:101C5000CB019DA78CA78CA59DA599A788A788A532
:101C600099A50197F1F799A788A70FC06FA978AD3B
:101C700089AD9AAD0E944100DC01CB018EAB8EA9EB
:101C80008FA38FA18A95F1F78FA3ABE3B0E0EBE3CD
:101C9000F0E08081282F2F70FE01E95AFF4F8081EC
:101CA000882F90E082959295907F9827807F982743
:101CB000822B8C9381E063E041E00E944F0780E03B
:101CC00090E0A0E8BFE38BA39CA3ADA3BEA36BA150
:101CD0007CA18DA19EA12BEA3AEA4AEA50E40E9437
:101CE0001702DC01CB018F8F98A3A9A3BAA36F8D34
:101CF00078A189A19AA120E030E040E85FE30E944A
:101D00001D0488231CF481E08E8F91C06F8D78A113
:101D100089A19AA120E030E04FE753E40E94BD037F
:101D200018160CF07BC06BA17CA18DA19EA120E0B8
:101D300030E04AE754E40E941103DC01CB018A8FB2
:101D40009B8FAC8FBD8F6A8D7B8D8C8D9D8D20E0A0
:101D500030E04AE755E40E941702DC01CB018E8B8C
:101D60009F8BA88FB98F6E897F89888D998D20E090
:101D700030E040E85FE30E941D0488232CF481E0FA
:101D800090E09D8B8C8B3FC06E897F89888D998D6B
:101D900020E03FEF4FE757E40E94BD0318164CF5D3
:101DA0006A8D7B8D8C8D9D8D20E030E040E251E48A
:101DB0000E941702DC01CB01BC01CD010E94410051
:101DC000DC01CB019D8B8C8B0FC080E991E09B8B5C
:101DD0008A8B8A899B890197F1F79B8B8A8B8C89E7
:101DE0009D8901979D8B8C8B8C899D89009769F7C4
:101DF00024C06E897F89888D998D0E944100DC0105
:101E0000CB019D8B8C8B8C899D89998B888B888944
:101E100099890197F1F7998B888B0FC06F8D78A105
:101E200089A19AA10E944100DC01CB018E8F8E8D89
:101E30008F878F858A95F1F78F8781E063E040E097
:101E40000E944F0780E090E0A0E0B0E48B879C8781
:101E5000AD87BE876B857C858D859E8520E030E0D3
:101E60004AE755E40E941702DC01CB018F83988773
:101E7000A987BA876F81788589859A8520E030E0C7
:101E800040E85FE30E941D0488232CF481E090E089
:101E90009E838D833FC06F81788589859A8520E0F8
:101EA0003FEF4FE757E40E94BD0318164CF56B85D2
:101EB0007C858D859E8520E030E040E251E40E94E3
:101EC0001702DC01CB01BC01CD010E944100DC0105
:101ED000CB019E838D830FC080E991E09C838B832F
:101EE0008B819C810197F1F79C838B838D819E81EF
:101EF00001979E838D838D819E81009769F714C021
:101F00006F81788589859A850E944100DC01CB012B
:101F10009E838D838D819E819A83898389819A8115
:101F20000197F1F79A838983C95ADF4F0FB6F89466
:101F3000DEBF0FBECDBFCF91DF911F910F910895EE
:101F40000F931F93DF93CF93CDB7DEB7C755D04024
:101F50000FB6F894DEBF0FBECDBFFE01E95AFF4FAA
:101F60008083ABE3B0E0EBE3F0E08081982F9F70DB
:101F7000FE01E95AFF4F8081807F892B8C9381E09D
:101F800061E041E00E944F0781E062E040E00E9492
:101F90004F0781E063E041E00E944F07FE01ED5AE8
:101FA000FF4F80E090E0A0E8BFE380839183A283AD
:101FB000B3838E01015B1F4FFE01ED5AFF4F60811D
:101FC0007181828193812BEA3AEA4AEA50E40E94C5
:101FD0001702DC01CB01F80180839183A283B383D4
:101FE000FE01E15BFF4F608171818281938120E07E
:101FF00030E040E85FE30E941D04882334F4FE01D2
:10200000E25BFF4F81E08083E0C0FE01E15BFF4FB8
:10201000608171818281938120E030E04FE753E459
:102020000E94BD0318160CF0C0C0FE01ED5AFF4F10
:10203000608171818281938120E030E04AE754E43D
:102040000E941103DC01CB01FE01E65BFF4F8083A0
:102050009183A283B3838E010A5B1F4FFE01E65B6F
:10206000FF4F608171818281938120E030E04AE7F7
:1020700055E40E941702DC01CB01F80180839183B3
:10208000A283B383FE01EA5BFF4F6081718182818D
:10209000938120E030E040E85FE30E941D04882344
:1020A00044F4FE01EC5BFF4F81E090E0918380837C
:1020B00064C0FE01EA5BFF4F608171818281938180
:1020C00020E03FEF4FE757E40E94BD0318160CF0E5
:1020D00043C0FE01E65BFF4F608171818281938185
:1020E00020E030E040E251E40E941702DC01CB0125
:1020F0008E010C5B1F4FBC01CD010E944100DC0131
:10210000CB01F801918380831FC0FE01EE5BFF4F7E
:1021100080E991E091838083FE01EE5BFF4F808137
:1021200091810197F1F7FE01EE5BFF4F9183808370
:10213000DE01AC5BBF4FFE01EC5BFF4F8081918104
:10214000019711969C938E93FE01EC5BFF4F80816B
:1021500091810097D1F642C08E010C5B1F4FFE01AA
:10216000EA5BFF4F60817181828193810E9441000F
:10217000DC01CB01F80191838083DE01A05CBF4FBD
:10218000FE01EC5BFF4F8081918111969C938E93B1
:10219000FE01E05CFF4F808191810197F1F7FE0124
:1021A000E05CFF4F9183808319C08E01025B1F4F5B
:1021B000FE01E15BFF4F60817181828193810E940A
:1021C0004100DC01CB01F8018083FE01E25BFF4F9F
:1021D00080818FAF8FAD8A95F1F78FAF81E063E09B
:1021E00040E00E944F0780E090E0A8E4B3E48BAFAA
:1021F0009CAFADAFBEAF6BAD7CAD8DAD9EAD2BEAF0
:102200003AEA4AEA50E40E941702DC01CB018FABA4
:1022100098AFA9AFBAAF6FA978AD89AD9AAD20E0FC
:1022200030E040E85FE30E941D0488231CF481E055
:102230008EAB91C06FA978AD89AD9AAD20E030E04A
:102240004FE753E40E94BD0318160CF07BC06BAD42
:102250007CAD8DAD9EAD20E030E04AE754E40E94B5
:102260001103DC01CB018AAB9BABACABBDAB6AA964
:102270007BA98CA99DA920E030E04AE755E40E94A3
:102280001702DC01CB018EA79FA7A8ABB9AB6EA547
:102290007FA588A999A920E030E040E85FE30E948B
:1022A0001D0488232CF481E090E09DA78CA73FC0FB
:1022B0006EA57FA588A999A920E03FEF4FE757E4D5
:1022C0000E94BD0318164CF56AA97BA98CA99DA98B
:1022D00020E030E040E251E40E941702DC01CB0133
:1022E000BC01CD010E944100DC01CB019DA78CA760
:1022F0000FC080E991E09BA78AA78AA59BA50197BB
:10230000F1F79BA78AA78CA59DA501979DA78CA7F0
:102310008CA59DA5009769F724C06EA57FA588A907
:1023200099A90E944100DC01CB019DA78CA78CA537
:102330009DA599A788A788A599A50197F1F799A7C1
:1023400088A70FC06FA978AD89AD9AAD0E944100F2
:10235000DC01CB018EAB8EA98FA38FA18A95F1F7FB
:102360008FA3ABE3B0E0EBE3F0E08081282F2F7088
:10237000FE01E95AFF4F8081882F90E08295929567
:10238000907F9827807F9827822B8C9381E063E051
:1023900041E00E944F0780E090E0A0E8BFE38BA3FC
:1023A0009CA3ADA3BEA36BA17CA18DA19EA12BEA92
:1023B0003AEA4AEA50E40E941702DC01CB018F8F0F
:1023C00098A3A9A3BAA36F8D78A189A19AA120E0AF
:1023D00030E040E85FE30E941D0488231CF481E0A4
:1023E0008E8F91C06F8D78A189A19AA120E030E0F5
:1023F0004FE753E40E94BD0318160CF07BC06BA19D
:102400007CA18DA19EA120E030E04AE754E40E9427
:102410001103DC01CB018A8F9B8FAC8FBD8F6A8D3E
:102420007B8D8C8D9D8D20E030E04AE755E40E9445
:102430001702DC01CB018E8B9F8BA88FB98F6E8921
:102440007F89888D998D20E030E040E85FE30E942D
:102450001D0488232CF481E090E09D8B8C8B3FC081
:102460006E897F89888D998D20E03FEF4FE757E493
:102470000E94BD0318164CF56A8D7B8D8C8D9D8D49
:1024800020E030E040E251E40E941702DC01CB0181
:10249000BC01CD010E944100DC01CB019D8B8C8BE6
:1024A0000FC080E991E09B8B8A8B8A899B89019779
:1024B000F1F79B8B8A8B8C899D8901979D8B8C8BE7
:1024C0008C899D89009769F724C06E897F89888DE2
:1024D000998D0E944100DC01CB019D8B8C8B8C89F6
:1024E0009D89998B888B888999890197F1F7998BB8
:1024F000888B0FC06F8D78A189A19AA10E9441009D
:10250000DC01CB018E8F8E8D8F878F858A95F1F7B9
:102510008F8781E063E040E00E944F0780E090E019
:10252000A0E0B0E48B879C87AD87BE876B857C85F8
:102530008D859E8520E030E04AE755E40E94170231
:10254000DC01CB018F839887A987BA876F81788553
:1025500089859A8520E030E040E85FE30E941D0411
:1025600088232CF481E090E09E838D833FC06F81AF
:10257000788589859A8520E03FEF4FE757E40E94F0
:10258000BD0318164CF56B857C858D859E8520E0F6
:1025900030E040E251E40E941702DC01CB01BC01B3
:1025A000CD010E944100DC01CB019E838D830FC0D1
:1025B00080E991E09C838B838B819C810197F1F76B
:1025C0009C838B838D819E8101979E838D838D81DA
:1025D0009E81009769F714C06F81788589859A85F7
:1025E0000E944100DC01CB019E838D838D819E8101
:1025F0009A83898389819A810197F1F79A838983E4
:10260000C95ADF4F0FB6F894DEBF0FBECDBFCF91D2
:10261000DF911F910F910895DF93CF93CDB7DEB770
:102620002E970FB6F894DEBF0FBECDBF81E00E949B
:10263000340C80E090E0A0E0B0E48B879C87AD870D
:10264000BE876B857C858D859E8520E030E04AE7DE
:1026500055E40E941702DC01CB018F839887A9877C
:10266000BA876F81788589859A8520E030E040E8D7
:102670005FE30E941D0488232CF481E090E09E8398
:102680008D833FC06F81788589859A8520E03FEFF3
:102690004FE757E40E94BD0318164CF56B857C8507
:1026A0008D859E8520E030E040E251E40E941702D3
:1026B000DC01CB01BC01CD010E944100DC01CB015A
:1026C0009E838D830FC080E991E09C838B838B81F7
:1026D0009C810197F1F79C838B838D819E8101976B
:1026E0009E838D838D819E81009769F714C06F81D1
:1026F000788589859A850E944100DC01CB019E8303
:102700008D838D819E819A83898389819A810197A6
:10271000F1F79A83898380E80E94340C2E960FB6D5
:10272000F894DEBF0FBECDBFCF91DF910895DF9348
:10273000CF9300D00F92CDB7DEB79B838A831982E7
:102740000EC08981282F30E08A819B81FC01E20F35
:10275000F31F80810E94A00F89818F5F8983898107
:10276000282F30E08A819B81FC01E20FF31F8081DA
:10277000882339F70F900F900F90CF91DF91089534
:10278000DF93CF9300D000D0CDB7DEB789836A83C3
:102790005C834B838981882349F48A81803130F4BA
:1027A0008A818F7080680E94340C0BC089818130CF
:1027B00041F48A81803128F48A818F70806C0E9474
:1027C000340C8B819C810E9497130F900F900F9077
:1027D0000F90CF91DF910895DF93CF93CDB7DEB700
:1027E0002E970FB6F894DEBF0FBECDBF6B877C87E8
:1027F0008D879E878DB79EB708970FB6F8949EBFBA
:102800000FBE8DBFEDB7FEB73196CE010196918315
:10281000808380E690E0938382838B859C85AD8561
:10282000BE8584839583A683B7830E947F148DB76A
:102830009EB708960FB6F8949EBF0FBE8DBFCE010F
:1028400001960E9497132E960FB6F894DEBF0FBE26
:10285000CDBFCF91DF910895DF93CF9300D000D00B
:10286000CDB7DEB70E94DC088AE990E0A0E0B0E0D6
:1028700089839A83AB83BC8380E80E94340C89816E
:102880009A81AB81BC81BC01CD010E94EC13FFCFCA
:102890002F923F924F925F926F927F928F929F9270
:1028A000AF92BF92CF92DF92EF92FF920F931F935E
:1028B000CF93DF93CDB7DEB7CA1BDB0B0FB6F8940F
:1028C000DEBF0FBECDBF09942A88398848885F844F
:1028D0006E847D848C849B84AA84B984C884DF80C0
:1028E000EE80FD800C811B81AA81B981CE0FD11DA4
:1028F0000FB6F894DEBF0FBECDBFED010895AEE078
:10290000B0E0E5E8F4E10C9456140D891E8986E0E8
:102910008C831A8309838FEF9FE79E838D839E01AB
:10292000275E3F4FCE0101966F89788DA9010E94E5
:10293000A3142F813885020F131FF80110822E96E1
:10294000E4E00C947214ABE0B0E0E9EAF4E10C943A
:1029500048143C012B015A01FC0117821682838125
:1029600081FD03C06FEF7FEFC6C19AE0892E1E0183
:102970000894211C311CF3012381F20123FD859170
:1029800023FF81912F01882309F4B2C1853239F4E4
:1029900023FD859123FF81912F01853229F490E059
:1029A000B3010E949616E7CF982FFF24EE249924B6
:1029B000FFE1FF15D0F09B3269F09C3228F4903291
:1029C00059F0933291F40EC09D3249F0903369F47E
:1029D00041E024C052E0F52A84E0F82A28C098E0BB
:1029E000F92A25C0E0E1FE2A22C0F7FC29C0892F80
:1029F00080538A3070F4F6FE05C0989C902C112408
:102A0000980E15C0E89CE02C1124E80EF0E2FF2A95
:102A10000EC09E3229F4F6FC6BC140E4F42A07C0D4
:102A20009C3619F450E8F52A02C0983649F4F201B0
:102A300023FD959123FF91912F01992309F0B8CFA0
:102A4000892F8554833018F08052833038F444E065
:102A500050E0A40EB51E5FE359830FC0933631F0EA
:102A6000933779F0933509F056C020C0F501808185
:102A7000898342E050E0A40EB51E610101E010E040
:102A800012C0F501C080D180F6FC03C06FEF7FEF6C
:102A900002C0692D70E042E050E0A40EB51EC601F0
:102AA0000E948B168C015FE7F52214C0F501C080EF
:102AB000D180F6FC03C06FEF7FEF02C0692D70E09C
:102AC00042E050E0A40EB51EC6010E9480168C01A3
:102AD00050E8F52AF3FE07C01AC080E290E0B30187
:102AE0000E949616EA948E2D90E008171907A8F315
:102AF0000EC0F601F7FC8591F7FE81916F0190E021
:102B0000B3010E949616E110EA940150104001159D
:102B1000110579F7EAC0943611F0993669F5F7FE98
:102B200008C0F501208131814281538184E090E029
:102B30000AC0F501808191819C01442737FD4095B1
:102B4000542F82E090E0A80EB91E9FE6F92257FFAD
:102B500009C050954095309521953F4F4F4F5F4F9D
:102B6000E0E8FE2ACA01B901A1012AE030E00E9492
:102B7000C216D82ED21840C0953729F41F2D1F7EBB
:102B80002AE030E01DC01F2D197F9F3661F090377D
:102B900020F4983509F0ACC00FC0903739F0983761
:102BA00009F0A6C004C028E030E00AC0106114FD9E
:102BB000146020E130E004C014FD166020E132E032
:102BC00017FF08C0F501608171818281938144E023
:102BD00050E008C0F50180819181BC0180E090E067
:102BE00042E050E0A40EB51EA1010E94C216D82EEC
:102BF000D2188FE7F82EF122F6FE0BC05EEFF52219
:102C0000D91438F4F4FE07C0F2FC05C08FEEF822A8
:102C100002C01D2D01C0192DF4FE0DC0FE01ED0DE9
:102C2000F11D8081803319F499EEF92208C01F5FED
:102C3000F2FE05C003C08F2D867809F01F5F0F2DAF
:102C4000F3FC14C0F0FE0FC01E1510F09D2C0BC03D
:102C50009D2C9E0C911A1E2D06C080E290E0B301BF
:102C60000E9496161F5F1E15C0F304C01E1510F4B7
:102C7000E11A01C0EE2404FF0FC080E390E0B3012D
:102C80000E94961602FF1DC001FD03C088E790E078
:102C90000EC088E590E00BC0802F867891F001FF90
:102CA00002C08BE201C080E2F7FC8DE290E0B3014C
:102CB0000E94961606C080E390E0B3010E9496162B
:102CC0009A94D914C0F3DA94F101ED0DF11D8081CD
:102CD00090E0B3010E949616DD20A9F706C080E2BD
:102CE00090E0B3010E949616EA94EE20C1F743CE1D
:102CF000F30166817781CB012B96E2E10C94641499
:102D0000FC010590615070400110D8F780959095B6
:102D10008E0F9F1F0895FC016150704001900110BB
:102D2000D8F7809590958E0F9F1F08950F931F934E
:102D3000CF93DF938C01EB018B8181FF1BC082FF5E
:102D40000DC02E813F818C819D812817390764F445
:102D5000E881F9810193F983E88306C0E885F98564
:102D6000802F0995892B31F48E819F8101969F8355
:102D70008E8302C00FEF1FEFC801DF91CF911F912B
:102D80000F910895FA01AA27283051F1203181F1DD
:102D9000E8946F936E7F6E5F7F4F8F4F9F4FAF4F63
:102DA000B1E03ED0B4E03CD0670F781F891F9A1F76
:102DB000A11D680F791F8A1F911DA11D6A0F711D2A
:102DC000811D911DA11D20D009F468943F912AE036
:102DD000269F11243019305D3193DEF6CF0108951E
:102DE000462F4770405D4193B3E00FD0C9F7F6CF4F
:102DF000462F4F70405D4A3318F0495D31FD405217
:102E0000419302D0A9F7EACFB4E0A69597958795AC
:102E100077956795BA95C9F700976105710508958B
:102E20009B01AC010A2E0694579547953795279537
:102E3000BA95C9F7620F731F841F951FA01D0895CF
:042E4000F894FFCF34
:0C2E4400256400000000000000000000F9
:00000001FF
